:020000040800F2
:100000009023002001010008C32200080B01000812
:10001000C1220008091400084D4E0008000000002D
:100020000000000000000000000000001F2E00087B
:10003000CF16000800000000170100081901000891
:100040001B0100081B0100081B010008052900080E
:100050001B0100081B0100081B0100081B01000810
:100060001B0100081B0100081B0100081B01000800
:100070000D1400082514000875140008A9140008C0
:10008000D5140008011500081B0100081B01000819
:100090001B0100081B0100081B0100081B010008D0
:1000A0001B0100081B0100081B0100081B010008C0
:1000B00001390008893900081B0100081B010008EC
:1000C0001B0100081B0100081B0100081B010008A0
:1000D0001B01000869460008714900087D4B0008B3
:1000E0001B0100081B0100081B010008DFF80CD0F1
:1000F00000F0C0FB004800475D6D00089023002021
:100100000648804706480047FEE7FEE7FEE7FEE7B1
:10011000FEE7FEE7FEE7FEE7FEE7FEE7B138000890
:10012000ED00000840EA01039B0703D009E008C97D
:10013000121F08C0042AFAD203E011F8013B00F8AC
:10014000013B521EF9D27047D2B201E000F8012BF8
:10015000491EFBD270470022F6E710B513460A4647
:1001600004461946FFF7F0FF204610BD30B480EA80
:10017000010202F0004530F0004221F0004013D0AF
:1001800090B1C30DD40DC2F31601C0F31600E41AEA
:1001900041F4000140F400027D34914201D3641C1B
:1001A00000E04900002C02DA30BC002070474FF418
:1001B00000000023914201D3891A034340084FEA0B
:1001C0004101F7D151B1914202D14FF0004105E018
:1001D00002D24FF0010101E06FF0010103EBC450C6
:1001E000284430BC00F082BA2DE9FE4F804681EAF7
:1001F0000300C00F0C46009021F0004123F00045A1
:10020000B8EB0200A94105D24046214690461C4663
:100210000B46024623F00040104347D0270DC7F39A
:100220000A00C3F30A510290401A019040286BDA89
:10023000C3F3130040F4801B0098924620B10023C2
:10024000D2EB030A63EB0B0B01985946C0F1400255
:10025000504600F01AFA06460D4650465946019A95
:1002600000F032FA10EB08006141002487EA1152D5
:1002700084EAE7731A4340D0009A62B3019A012AD4
:100280004FEA075215DC001B61EB02014FF0004200
:1002900002EA0752CDE90042001C41F580113246C6
:1002A0002B4600F069FA03B0BDE8F08F40462146C6
:1002B000F9E7001B61EB0201001C41F580130018F7
:1002C0005B412018A2F5001747EB030140EAD57007
:1002D000B6196D4111E06D084FEA360645EAC07562
:1002E0004FEA0752001B61EB0201001C41F580112F
:1002F00049084FEA30000019514132462B4603B0FD
:10030000BDE8F04F00F029BA009801224000002318
:10031000D0EB020263EBE073009821464FEAE074F1
:10032000B8EB000061EB0401E9E783F000435BE711
:1003300081F0004158E72DE9FE4F81EA030404F003
:10034000004421F0004100944FF0000B23F00043E3
:1003500050EA01045ED052EA03045BD0C3F30A54AE
:10036000C1F30A552C44A4F2F3340194A0FB0254C7
:10037000C1F3130141F48011C3F3130343F4801359
:1003800001FB024400FB034E840A970A44EA8154AD
:1003900047EA8357A4FB076802958D0A05FB07858A
:1003A0004FEA932C04FB0C542705029D4FEA065894
:1003B00047EA1637B5EB08056EEB070C870E920E71
:1003C00047EA811742EA8312A7FB0201B6EB0B0151
:1003D00064EB00042B0D43EA0C335E1844EB1C5015
:1003E000DA465146E7FB0201C5F313044FEA0B332B
:1003F00043EA14534FEA0432019C43EA0603A4F192
:100400000C040294009CCDE900B400F0B5F903B0EF
:10041000BDE8F08F00200146F9E72DE9F04D81EAB3
:10042000030404F0004B21F0004514464FF0000A8D
:1004300023F0004150EA050220D054EA01021DD009
:10044000C5F30A570246C5F31303C1F31300C1F302
:100450000A5640F4801543F48013A7EB0608101BDE
:10046000D64608F2FD3873EB050002D308F1010807
:1004700001E092185B41B8F1000F03DA0020014659
:10048000BDE8F08D00204FF48011064684460EE052
:10049000171B73EB050705D3121B63EB050306431C
:1004A0004CEA010C49084FEA300092185B4150EACF
:1004B0000107EDD152EA030012D082EA040083EA78
:1004C0000501084305D0101BAB4106D201220023D1
:1004D00006E000224FF0004302E06FF001025310EB
:1004E0001AEB06004CEB085110EB0A0041EB0B0134
:1004F000BDE8F04D00F031B970B521F00043034381
:100500000CD0C1F30A550024D5EB040564EB0403B9
:10051000D617AD1AB34102DB0020014670BD20188A
:1005200041EB025170BD96230022114600F0E7B85E
:100530000EB5C10F80EAE0700844CA07002140F2FE
:1005400033438DE80E000A460B4600F015F903B060
:1005500000BD0EB540F2334102910021CDE90011FA
:100560000A460B4600F008F903B000BDC1F30A5279
:1005700010B5C1F3130140F2FF3341F480119A42E8
:1005800001DA002010BD40F233439A42A2F2334216
:1005900003DC524200F088F810BD904010BD00F01E
:1005A000004230F000400AD0C10D01F56071C0F387
:1005B000160042EA0151C20840071143704700206B
:1005C0000146704701F0004330B421F0004150EA89
:1005D000010206D00A0DA2F56072C1F31301002AD0
:1005E00002DC30BC00207047440F44EAC104C10063
:1005F000E01830BC00EBC25000F078B830B50B46C4
:10060000014600202022012409E021FA02F59D4242
:1006100005D303FA02F5491B04FA02F52844151E16
:10062000A2F10102F1DC30BD2DE9F05F05460020AA
:1006300092469B4688460646814640241BE0284653
:1006400041464746224600F02FF853465A46C01A04
:10065000914110D311461846224600F016F82D1A83
:1006600067EB01084F4622460120002100F00DF8FB
:1006700017EB00094E41201EA4F10104DFDC4846BF
:1006800031462A464346BDE8F09F202A04DB203A43
:1006900000FA02F1002070479140C2F1200320FAD5
:1006A00003F3194390407047202A04DB203A21FAD3
:1006B00002F00021704721FA02F3D040C2F120027B
:1006C0009140084319467047202A06DBCB17203A91
:1006D00041FA02F043EAE07306E041FA02F3D04047
:1006E000C2F1200291400843194670470029A8BF73
:1006F0007047401C490008BF20F00100704710B44B
:10070000B0FA80FC00FA0CF050EA010404BF10BCFF
:10071000704749B1CCF1200421FA04F411FA0CF12C
:1007200018BF012121430843A3EB0C01CB1D4FEA65
:1007300000614FEA102042BF002010BC704700EB60
:10074000C35010440029A4BF10BC7047401C49008E
:1007500008BF20F0010010BC704710B5141E73F1E3
:10076000000408DA401C41F1000192185B411A4371
:1007700001D120F0010010BD2DE9F04D92469B46BD
:1007800011B1B1FA81F202E0B0FA80F22032904663
:10079000FFF77BFF04460F4640EA0A0041EA0B01DF
:1007A00053465A46084313D0114653EA010019D064
:1007B000C8F140025046FFF777FF05460E46504607
:1007C00059464246FFF761FF084305D0012004E087
:1007D00020463946BDE8F08D0020054346EAE07624
:1007E0002C4337430A986305E40AA0EB0800002273
:1007F000FD0A44EA47540A3002D500200146E9E7E1
:10080000010510196941DDE9084500196941BDE894
:10081000F04DA2E7C1F30A52C1F3130140F2FF33D6
:1008200041F480119A4202DA00200146704740F2FA
:1008300033439A42A2F2334202DC5242FFF734BF02
:10084000FFF723BF30B5041E71F1000404DB4FF045
:100850000044404264EB0101141E73F1000405DB07
:100860001C464FF00043524263EB0403994208BF19
:10087000904230BD064C074D06E0E06840F00103B1
:1008800094E8070098471034AC42F6D3FFF732FCE7
:10089000A09A0008C09A000870B5C1F30A5201F08E
:1008A00000450024C1F3130140F2FF3341F48011ED
:1008B0009A4201DA002070BD40F233439A42A2F21C
:1008C000334203DC5242FFF7EFFE00E090402C433E
:1008D000F1D0404270BD000008B50121082001F0B0
:1008E00045FE0220ADF8000000208DF803006946A7
:1008F000014800F09BFF08BD000C014010B5FFF758
:10090000EBFFBDE8104000F001B8000070B5012118
:1009100090B0084601F012FE324E304600F02CFE38
:1009200031480090314801A90024022581E83100B6
:100930008020CDE9044040000690800007902020F0
:10094000CDE90804694630460A9400F0A3FE01216F
:10095000304600F005FEA80301F0E6FD0121480243
:1009600001F004FE01208DF830008DF831000B9469
:100970004FF46020CDE90D041B4C8DF83C504C3CED
:100980000BA9204600F056F8052301220921204634
:1009900000F074F8052302221021204600F06EF8C2
:1009A0000121204600F02EF8012000F0B5F80121C9
:1009B000204600F01DF8204600F09AF8204600F08E
:1009C00032F80028FAD1204600F0A1F8204600F0C5
:1009D00023F80028FAD10121204600F08EF810B04B
:1009E00070BD0000080002404C240140300000208F
:1009F0000029816802D041F0010101E021F00101EC
:100A0000816070470029816802D041F4807101E063
:100A100021F4807181607047014600208968490790
:100A200000D501207047014600208968090700D5DC
:100A30000120704710B542680E4B0C791A400B68C4
:100A400042EA04221343436082680B4B1A40D1E907
:100A5000024323434C7942EA440213438360C26A4F
:100A6000097C22F47002491EC9B242EA0151C162F6
:100A700010BD0000FFFEF0FFFDF7F1FF70B5072687
:100A800009290AD9C568A1F10A0404EB4404A64067
:100A9000B543A3401D43C56007E0056901EB410470
:100AA000A640B543A3401D4305611F23072A09D271
:100AB000446B521E02EB820293409C4391400C43D4
:100AC000446370BD0D2A09D2046BD21F02EB82026F
:100AD00093409C4391400C43046370BDC46A0D3A3B
:100AE00002EB820293409C4391400C43C46270BD70
:100AF000816841F00801816070470029816802D057
:100B000041F4A00101E021F4A001816070478168F7
:100B100041F004018160704705490028086802D04F
:100B200040F4000001E020F400000860704700007D
:100B3000082401407CB50A21012000F009FFFFF7DD
:100B400008FD4FF066325D4BFFF7F5FBFFF73AFD0E
:100B500001240F250321B0F1814F26DBCDE90015DB
:100B60000923592202214B2003F046F907234E2284
:100B700004214D20CDE9004503F03EF90723512221
:100B800004215020CDE9004503F036F90723542213
:100B900004215320CDE9004503F02EF90723572205
:100BA00004215620CDE900457DE0454A00269042CB
:100BB0001EDDCDE900150923592202214B2003F047
:100BC0001BF907234E2204214D20CDE9004503F0F7
:100BD00013F90723512204215020CDE9004503F0E9
:100BE0000BF90723542204215320CDE9004552E09C
:100BF000344A904216DBCDE900150923592202211F
:100C00004B2003F0F9F807234E2204214D20CDE9B3
:100C1000004503F0F1F80723512204215020CDE9CB
:100C2000004530E0284A90420EDDCDE90015092349
:100C3000592202214B2003F0DFF807234E22042122
:100C40004D20CDE9004516E0204A904204DBCDE975
:100C500000150923592204E00820CDE900100923DA
:100C6000592202214B2003F0C7F8CDE900460723A3
:100C70004E2204214D2003F0BFF8CDE900460723A2
:100C800051220421502003F0B7F8CDE90046072394
:100C900054220421532003F0AFF8CDE90046072386
:100CA00057220421562003F0A7F806235B220521D2
:100CB0005A20CDE9004503F09FF87CBD66665A3F97
:100CC00033337340CDCC6C406666664000006040B4
:100CD00010B5012001F056FCBDE81040002001F0E5
:100CE00051BC000008B5024908440090008808BDC6
:100CF000006C004008B5024A10440090016008BD35
:100D0000006C00404FF40051014800F009BE0000A3
:100D1000000C01401021014800F002BE000C01400F
:100D20004FF48051014800F0FBBD0000000C014071
:100D30000221014800F0F4BD0010014004210148E7
:100D400000F0EEBD001001404FF40071014800F0CA
:100D5000E7BD0000000C01404FF48071014800F035
:100D6000DFBD0000000C01408021014800F0D8BD2B
:100D7000000C01400121014800F0D2BD00100140EB
:100D80000821014800F0CCBD000C01404FF4804127
:100D9000014800F0C5BD0000000C014008210148D9
:100DA00000F0BEBD001001402021014800F0B8BD98
:100DB000000C01404FF48051014800F0B1BD00002B
:100DC000001001400421014800F0AABD00140140B8
:100DD00010B5FFF797FF0446FFF7C6FF44EA40044B
:100DE000FFF7C8FF44EA8004FFF7CAFF44EAC004E3
:100DF000FFF7CCFF44EA0014FFF7D0FF44EA4014A9
:100E0000FFF7D2FF44EA8014FFF7D4FF44EAC0148E
:100E1000FFF7D8FF44EA0024FFF77CFF44EA4024B0
:100E2000FFF77EFF44EA8024FFF782FF44EAC024F4
:100E3000FFF784FF44EA0034FFF786FF44EA4034BA
:100E4000FFF78AFF44EA803080B210BD0B4810B52E
:100E5000817AC9438172032004F028FA132004F038
:100E600055F8074803F040F906A255214E2003F03B
:100E7000EDF9BDE81040022000F02EBFDC0000209C
:100E8000C8980008313000000F4910B5C87AC04337
:100E900010F0FF00C87204D0132004F007FA1C20E1
:100EA00003E01F2004F002FA1D2004F02FF8074889
:100EB00003F01AF906A255214E2003F0C7F9BDE848
:100EC0001040022000F008BFDC000020C898000895
:100ED000313100000B4810B5017BC94301730B2071
:100EE00004F0E4F90C2004F011F8074803F0FCF8D2
:100EF00006A255214E2003F0A9F9BDE810400220BA
:100F000000F0EABEDC000020C89800083132000082
:100F10000B4810B5417BC9434173082004F0C6F962
:100F2000112003F0F3FF074803F0DEF806A2552175
:100F30004E2003F08BF9BDE81040022000F0CCBE3B
:100F4000DC000020C8980008313300000F4910B5BC
:100F5000887BC04310F0FF00887304D0042004F0A5
:100F6000A5F9B92003E00A2004F0A0F9782003F0E5
:100F7000CDFF074803F0B8F806A255214E2003F034
:100F800065F9BDE81040022000F0A6BEDC0000209C
:100F9000C8980008313400000F4910B5C87BC04321
:100FA00010F0FF00C87304D0192004F07FF9182056
:100FB00003E01A2004F07AF9192003F0A7FF07488C
:100FC00003F092F806A255214E2003F03FF9BDE848
:100FD0001040022000F080BEDC000020C89800080D
:100FE000313500000B4810B54178C94341700520E8
:100FF00004F05CF9012003F089FF074803F074F85E
:1010000006A255214E2003F021F9BDE81040022030
:1010100000F062BEDC000020C898000830310000FB
:101020000F4910B58878C04310F0FF00887004D0D5
:10103000142004F03BF9142003E01D2004F036F9DD
:10104000152003F063FF074803F04EF806A2552170
:101050004E2003F0FBF8BDE81040022000F03CBE3B
:10106000DC000020C8980008303200000B4810B5A2
:10107000C178C943C1700E2004F018F9032003F0B1
:1010800045FF074803F030F806A255214E2003F033
:10109000DDF8BDE81040022000F01EBEDC0000209C
:1010A000C8980008303300000B4810B50179C943D7
:1010B0000171062004F0FAF8042003F027FF074826
:1010C00003F012F806A255214E2003F0BFF8BDE848
:1010D0001040022000F000BEDC000020C89800088C
:1010E000303400000B4810B54179C94341710920E3
:1010F00004F0DCF8102003F009FF074802F0F4FFC9
:1011000006A255214E2003F0A1F8BDE810400220B0
:1011100000F0E2BDDC000020C89800083035000077
:101120000B4810B58179C94381710C2004F0BEF8D9
:10113000062003F0EBFE074802F0D6FF06A2552179
:101140004E2003F083F8BDE81040022000F0C4BD3B
:10115000DC000020C8980008303600000F4910B5A8
:10116000C879C04310F0FF00C87104D0102004F00B
:101170009DF8162003E0112004F098F8172003F0E2
:10118000C5FE074802F0B0FF06A255214E2003F02D
:101190005DF8BDE81040022000F09EBDDC0000209C
:1011A000C8980008303700000F4910B5087AC043CE
:1011B00010F0FF00087204D0122004F077F81A2013
:1011C00003E01E2004F072F81B2003F09FFE074886
:1011D00002F08AFF06A255214E2003F037F8BDE841
:1011E0001040022000F078BDDC000020C898000804
:1011F000303800000B4810B5417AC94341720220D3
:1012000004F054F8122003F081FE074802F06CFF4E
:1012100006A255214E2003F019F8BDE81040022027
:1012200000F05ABDDC000020C898000830390000EA
:101230002DE9F8430121082001F098F94FF40050FE
:10124000ADF800000424DFF8B4818DF803400225D6
:101250008DF802506946404600F0E8FA0121082066
:1012600001F084F98020ADF800008DF803408DF87E
:1012700002506946404600F0D9FA0121102001F0E1
:1012800075F90120ADF800005D4F8DF803408DF831
:1012900002506946384600F0C9FA0121082001F0E1
:1012A00065F90826ADF800608DF803408DF802500E
:1012B0006946404600F0BAFA0121082001F056F9CB
:1012C0002003ADF800008DF803408DF80250694608
:1012D000404600F0ABFA0121102001F047F9ADF8CB
:1012E00000608DF803408DF802506946384600F0E2
:1012F0009DFA0121082001F039F92020ADF8000005
:101300008DF803408DF802506946404600F08EFA91
:101310000121102001F02AF9A602ADF800608DF835
:1013200003408DF802506946384600F07FFA0121EB
:10133000202001F01BF9ADF800408DF803408DF836
:10134000025069462F4800F071FA0121082001F08F
:101350000DF91020ADF800008DF803408DF8025013
:101360006946404600F062FA0121082001F0FEF8CB
:10137000ADF800608DF803408DF802506946404694
:1013800000F054FA0121102001F0F0F8ADF80050FF
:101390008DF803408DF802506946384600F046FA51
:1013A0000121102001F0E2F8ADF800408DF8034073
:1013B0008DF802506946384600F038FA01210820BD
:1013C00001F0D4F8E001ADF800008DF803408DF88D
:1013D00002506946404600F029FA0121082001F038
:1013E000C5F8A001ADF800008DF803408DF802505B
:1013F0006946404600F01AFABDE8F883000C014047
:101400000010014000140140FEE7000010B5F0207C
:1014100000F09AF8BDE810400021014800F0A0B8A3
:101420001C00024010B54FF4007000F01BF9C0B171
:101430000D4C204600F012F90028FAD1022000F0ED
:1014400003FC0A4910200860094900200870014681
:10145000204600F085F84FF47060BDE8104000F0C1
:1014600073B84FF44060F8E73000024010080140C4
:101470003800002070B54FF4005000F0F3F8084D2C
:10148000012418B16C70022000F096FB4FF47040FC
:1014900000F05AF80021034800F062F86C7070BD4B
:1014A0003C0000204400024010B54FF4702000F0D2
:1014B0004BF8074C0021204600F052F8044A8021E6
:1014C000583AD1652046BDE81040012100F048B8E7
:1014D0005800024010B54FF4700000F035F8074C8A
:1014E0000021204600F03CF8044A40216C3A116784
:1014F0002046BDE81040012100F032B86C000240E7
:1015000010B54FF0007000F0ADF810B106490120A1
:1015100008714FF0706000F017F8BDE8104000212E
:10152000024800F01DB800003C000020800002408E
:10153000C10002D5024908607047024948607047FF
:101540000404024000000240C10002D502490860C4
:10155000704702494860704704040240000002409E
:101560000029016802D041F0010102E04FF6FE724D
:10157000114001607047000001684FF6FE72114093
:1015800001600021016041608160C1603149314AE0
:101590000839904203D1486840F00F0006E02D4A18
:1015A0001432904204D1486840F0F000486070471F
:1015B000284A2832904203D1486840F47060F5E729
:1015C000244A3C32904203D1486840F47040EDE731
:1015D000204A5032904203D1486840F47020E5E739
:1015E0001C4A6432904203D1486840F47000DDE741
:1015F000184A7832904203D1486840F07060D5E7CD
:10160000154A111F904203D1086840F00F0006E010
:10161000114A1432904204D1086840F0F00008608A
:1016200070470D4A2832904203D1086840F4706038
:10163000F5E7094A3C32904203D1086840F4704013
:10164000EDE7054A50329042EAD1086840F4702034
:10165000E5E700000800024008040240406880B24C
:101660007047000002460020D10001D5034900E088
:1016700003490968114200D001207047000402406C
:1016800000000240002A026801D00A4300E08A43B9
:101690000260704730B5026847F6F0739A430C6AEF
:1016A0008B682343D1E904452C4323438C692343AE
:1016B000CC6923434C6A23438C6A2343134303605E
:1016C000CA6842600A6882604968C16030BD70477C
:1016D0001CB50F210820CDE900015F2300211A4627
:1016E000084602F089FB1CBD70B505464FF4302654
:1016F000304600F059F8042811D1094C206940F017
:10170000020020616561206940F0400020613046A0
:1017100000F04AF8216941F6FD721140216170BD67
:101720000020024008490420CA68D20701D00120E5
:101730007047CA68520701D502207047C968C906B8
:10174000FBD50320704700000020024002480169D9
:1017500041F080010161704700200240F0B506466B
:101760004FF400570D46384600F01EF804280CD1FF
:10177000064C206940F0010020613580384600F0B9
:1017800013F82169BA1E11402161F0BD002002400A
:10179000034802494160034941607047230167459E
:1017A00000200240AB89EFCD00B50346FFF7BAFF3A
:1017B00002E0FFF7B7FF5B1E012803D0002B00D12A
:1017C000052000BD002BF4D1FAE70000154810B544
:1017D0000078002825D1FFF77BFF134C4FF4B4723B
:1017E000606800EB40014900B1FBF2F302FB131308
:1017F000401C606012222021302000F09FFD4B220F
:101800004621192000F000FC55224621482000F016
:10181000FBFBFF2000F058FEBDE81040002000F068
:10182000B5B810BD3800002000000020F0B5CC781D
:10183000002204F00F03E40601D58C7823430C78D2
:101840004FF00F0C14F0FF0F4FF0010E1BD0056886
:101850000E880EFA02F42640A64210D196000CFA29
:1018600006F725EA070703FA06F5CE783D43282E4A
:1018700002D0482E02D002E0446100E00461521C14
:10188000082AE5D305600A88FF2A1CD9446800228B
:1018900002F108060EFA06F50E882E40AE420ED171
:1018A00096000CFA06F7BC4303FA06F7CE783C43E1
:1018B000282E00D14561CE78482E00D10561521CFA
:1018C000082AE5D34460F0BDF0B5144C002801DAD5
:1018D000E36900E06368450D2E0185B2C0F301574E
:1018E000B540C0F30342032F05D0C6020AD5032634
:1018F0009640B34307E023F07062636823F070639F
:10190000636002E0AB4343F0706201B12A430028F8
:1019100001DAE261F0BD6260F0BD0000000001404C
:101920000246002092680A4200D001207047024619
:101930000020D2680A4200D0012070474161704700
:10194000016170470AB10161704741617047000051
:1019500010B500221046064B03E01C88401C2244B0
:10196000C0B28842F9D3B2FBF1F080B210BD0000E2
:1019700030000020044800680349091D0968024935
:101980000831096870470000E8F7FF1FF8B500F05C
:101990000304124802F0A8FB49210026192524B1AE
:1019A000012C07D0022C0BD112E00F232A4658201D
:1019B000009603E02A460F234820009602F0CEFB53
:1019C0002A4611210F234F20009602F0C7FBF8BDD5
:1019D0000F232A464C200096F0E70000D09800081C
:1019E00010B5192005F0E0F8152000F0F9FA1020E4
:1019F00000F0F6FA3F2000F0F3FA752000F0F0FA5C
:101A0000002000F0EDFA5F2000F0EAFAA02000F0DC
:101A1000E7FA512000F0E4FAA12000F0E1FA0020FA
:101A200000F0DEFAA22000F0DBFA602000F0D8FA25
:101A3000A42000F0D5FAA82000F0D2FA5F2000F030
:101A4000CFFAB22000F0CCFA232000F0C9FAB3207C
:101A500000F0C6FAF02000F0C3FA812000F0C0FACE
:101A60007F2000F0BDFABC2000F0BAFA1F2000F081
:101A7000B7FA0A2005F098F8822000F0B1FAFE20AB
:101A800000F0AEFA0A2005F08FF8B12000F0A8FAB5
:101A9000212000F0A5FABB2000F0A2FA0F2000F0F0
:101AA0009FFABE2000F09CFA1F2000F099FAB8209F
:101AB00000F096FA042000F093FA062000F090FA65
:101AC000082000F08DFA0A2000F08AFA0C2000F0BD
:101AD00087FA0E2000F084FA102000F081FA12201C
:101AE00000F07EFA142000F07BFA162000F078FA5D
:101AF000182000F075FA1A2000F072FA1C2000F08D
:101B00006FFA1E2000F06CFA202000F069FA0A201B
:101B100005F04AF8BDE81040AF2000F061BA0000BF
:101B200002494CF6CC40086070470000003000408D
:101B300000F014B870B504460D4645F2555000F05B
:101B400021F8204600F012F8284600F015F800F0C1
:101B500005F8BDE87040FFF7E3BF000002494AF610
:101B6000AA2008607047000000300040014948602A
:101B70007047000000300040014988607047000055
:101B8000003000400149086070470000003000400C
:101B900081070CD16421B0FBF1F201FB120141B9C4
:101BA0004FF4C871B0FBF1F201FB120008B1002044
:101BB000704701207047000010B5104A012810D06E
:101BC000A8B1022819D1012114461046FFF7AFFE33
:101BD000C0F10100C2B22046BDE810400121FFF76C
:101BE000B1BEBDE8104001211046FFF7A7BEBDE819
:101BF000104001211046FFF7A3BE10BD000C0140AC
:101C000070B5104A4FF48071012810D0A0B102289D
:101C100017D10C4615461046FFF789FEC0F10100AA
:101C2000C2B221462846BDE87040FFF78BBEBDE832
:101C300070401046FFF782BEBDE870401046FFF7C7
:101C40007FBE70BD0010014070B5104A4FF40041D6
:101C5000012810D0A0B1022817D10C461546104615
:101C6000FFF765FEC0F10100C2B221462846BDE87B
:101C70007040FFF767BEBDE870401046FFF75EBEDC
:101C8000BDE870401046FFF75BBE70BD000C014020
:101C900010B5104A012810D0A8B1022819D101218D
:101CA00014461046FFF743FEC0F10100C2B22046C1
:101CB000BDE810400121FFF745BEBDE810400121FD
:101CC0001046FFF73BBEBDE8104001211046FFF76C
:101CD00037BE10BD0008014010B5104A012810D0D1
:101CE000A8B1022819D1022114461046FFF71FFEA1
:101CF000C0F10100C2B22046BDE810400221FFF74A
:101D000021BEBDE8104002211046FFF717BEBDE816
:101D1000104002211046FFF713BE10BD000801401D
:101D20002DE9F8430121082000F020FC4FF4004683
:101D3000ADF800601025DFF8B8808DF8035002245C
:101D40008DF8024069464046FFF770FD3146404637
:101D5000FFF7F6FD0121102000F008FCE601ADF8C8
:101D60000060244F8DF803508DF8024069463846D4
:101D7000FFF75CFD31463846FFF7E2FD0121082000
:101D800000F0F4FB0126ADF800608DF803508DF8EB
:101D9000024069464046FFF749FD01214046FFF7F2
:101DA000CFFD0121042000F0E1FBADF80040124F0F
:101DB0008DF803508DF8024069463846FFF736FD2E
:101DC00002213846FFF7BCFD0121042000F0CEFBC4
:101DD000ADF800608DF803508DF802406946384632
:101DE000FFF724FD01213846FFF7AAFDBDE8F8837F
:101DF000000C014000100140000801402DE9F041B5
:101E000092B00121052000F0B1FB01215C48FFF7F1
:101E10005BFD1025ADF8005003245A4E8DF80240AA
:101E20008DF8035069463046FFF700FDADF80050CD
:101E3000554F8DF802408DF8035069463846FFF73C
:101E4000F5FC2020ADF800008DF802408DF803501D
:101E500069463846FFF7EAFC20213846FFF770FD57
:101E60004020ADF800008DF803508DF8024069461F
:101E70003046FFF7DBFC0121052000F077FB012154
:101E8000080300F073FBA020ADF800008DF80240BD
:101E900018208DF8030069463046FFF7C7FCA00301
:101EA000ADF8300000244FF48270ADF83200ADF888
:101EB00034400220ADF836000126ADF8386000024B
:101EC000ADF83A000720314FADF83C40ADF8400086
:101ED000ADF83E400CA9384600F0FCFE0121384622
:101EE00000F0E6FEDFF8A8804046FFF745FB012141
:101EF000084600F023FB254801A90C300190254835
:101F0000CDE902054FF49050CDE904048020CDE9DD
:101F1000060480010894CDE9094040460B94FFF780
:101F2000B9FB4FF4E06000F0FFF90D208DF844009C
:101F30008DF845408DF846408DF8476011A800F0B7
:101F4000C1F9012202214046FFF79CFB0122082132
:101F50004046FFF797FB4FF47060FFF7F5FA012258
:101F60000221384600F0AEFE00214046FFF7F8FAA5
:101F70000121384600F09CFE12B0BDE8F08100005F
:101F80000002300000080140001001400030014014
:101F900030000240260400200D4810B501780029C9
:101FA00015D10C4A102111600B4A116101210170F9
:101FB0004FF47060FFF7C8FA08494FF49050486337
:101FC00006480121BDE810403030FFF7C9BA10BD06
:101FD00038000020140801400010014000000240B9
:101FE000064B00B510221A60054B5A6101460548A0
:101FF00000F08CFE0148001F026000BD1408014083
:1020000000100140003001402DE9F04F93B005462B
:102010000A2000900392A5F1120002B20BB288468A
:1020200028B24FF0120B4FF001091C461946064624
:1020300001F05AFE0420009005F1110002B223467F
:102040001946304601F050FE0F2302222146304649
:1020500001F02DFF0398FEF77CFACDE90D108B4AB5
:102060008B4BFEF768F9FEF781FA1FFA80FA00241D
:102070002846FEF76EFACDE906014046FEF769FAFA
:10208000CDE904015846FEF764FACDE90101204686
:10209000FEF75FFA00227F4BCDE90A01FEF7BDF99A
:1020A0007D4A7E4BFEF747F90646009104F010FD8D
:1020B00002460B46DDE90101FEF73DF902460B46FB
:1020C000DDE90601FEF731F9FEF750FA87B2304636
:1020D000009905F071F802460B46DDE90101FEF7B3
:1020E0002AF902460B46DDE90401FEF71EF9FEF768
:1020F0003DFA86B25046544511D8FEF72AFACDE98A
:102100001001DDE90A010022654BFEF714F9DDE953
:102110001023FEF782F9FEF729FA82B200E00422CA
:1021200031B238B201F062FEE41CA4B2B42CAED9D4
:10213000DDE90D105B4A5C4BFEF7FDF80E460446E8
:1021400004F0C6FC02460B46DDE90101FEF7F3F898
:1021500002460B46DDE90601FEF7E7F8FEF706FA50
:1021600087B22046314605F027F802460B46DDE9E6
:102170000101FEF7E0F802460B46DDE90401FEF737
:10218000D4F8FEF7F3F983B20F2000903A464146A7
:10219000284604F023FD1E21BAFBF1F00024009034
:1021A0006DE0C4EB04104FF6FF7101EA4000FEF74A
:1021B000D0F90022374BFEF730F9374A374BFEF79C
:1021C000BAF88A46064604F083FC02460B46DDE96F
:1021D0000101FEF7B0F802460B46DDE90601FEF705
:1021E000A4F8FEF7C3F907463046514604F0E4FF71
:1021F00002460B46DDE90101FEF79DF802460B465B
:10220000DDE90401FEF791F8FEF7B0F901B238B24A
:102210000F2309F101028A46064601F0E3FC00980B
:10222000FEF781F907462046FEF77DF93946FDF7AE
:102230009DFFFEF7B4F900221C4BFEF77CF800224C
:102240001B4BFDF7D1FFFEF791F983B24A46514689
:10225000304601F02CFE17A108A8039A03F06AFB90
:10226000164801F041FFA5EB0B00801D08F10501A8
:1022700000B208AA09B201F0E9FF641CA4B20098F8
:1022800084428ED913B0BDE8F08F0000CDCCCCCC09
:10229000CCCCFC3F008066404AD8124DFB2109405F
:1022A00000002E4062B37C8DBF15A03F000024408B
:1022B000000014402532642525000000C89800085D
:1022C000FEE7704730B50F23C27801780125F2B1DF
:1022D000144A126801F1E02102F4E062C2F5E06202
:1022E000120AC2F10404D3404278A24084781C4010
:1022F0001443220181F80024007800F01F018D4072
:102300004009800000F1E020C0F8005130BD01F02C
:102310001F0085404809800000F1E020C0F880518E
:1023200030BD00000CED00E002490843024908609E
:10233000704700000000FA050CED00E02DE9F04FB9
:1023400087B01446029089461846FEF702F900222B
:10235000534BFEF762F8534A534BFDF7ECFF05462B
:102360000E4604F0B5FB80468A462046FEF7F1F89B
:102370008B46074642465346FDF7DDFF82460591F0
:102380002846314604F018FF3A465B46FDF7D3FF76
:102390008346601E02B2029800910FFA89F100B2E2
:1023A00000238846074601F082FD0F2322B24146F2
:1023B000384601F017FC601C02B20F234146384634
:1023C00001F010FC0C2301224146384601F06FFD5C
:1023D0004846FEF7BEF881465A460491009BFDF739
:1023E00003FFFEF7C3F880B201900298FEF7B1F840
:1023F000804652460391059BFDF797FFFEF7B6F81E
:1024000080B2029048465A46009B0499FDF78DFF22
:10241000FEF7ACF887B240465246059B0399FDF79C
:10242000E3FEFEF7A3F80F210091DDE9013280B24F
:10243000394604F0D3FB2846314604F049FB0746F1
:102440008A46E01EFEF774F88B4604463A46534629
:10245000FDF771FF02460B4640460399FDF7C4FEA7
:1024600080460F462846314604F0A6FE22465B46CB
:10247000FDF761FF02460B4648460499FDF755FFFC
:10248000FEF774F804B240463946FEF76FF807B01D
:102490002146BDE8F04F0F2300B2022201F007BD34
:1024A000008066404AD8124DFB21094010B501F06A
:1024B0001BFFBDE8104002F0E5BC000001490862C6
:1024C0007047000000000E422DE9F843804610F0EE
:1024D000F00F01D00F2500E000250024182610275A
:1024E00006EB440307EB84010A220320009504F065
:1024F00075FB641CA4B2092CF2D35FEA087001D00A
:102500000F2500E00025002406EB440307EB8401BF
:1025100056225D20009504F061FB641CA4B2092CD6
:10252000F2D3BDE8F8830000034A516821F440412A
:10253000014351607047000000100240044A002926
:10254000516901D0014300E08143516170470000AF
:1025500000100240044A0029D16901D0014300E083
:102560008143D1617047000000100240044A0029F5
:10257000916901D0014300E08143916170470000FF
:1025800000100240014908607047000040044242C8
:1025900030B5224A5168224B11F00C0103D00429B6
:1025A00003D0082903D0036016E01E4913E05168E8
:1025B000536801F470114FF0020413F4803F04EBF0
:1025C000914104D053689B0303D5174B02E0174B8E
:1025D00000E0144B5943016051680F2303EA1111C5
:1025E000134B5C5C0168E14041605468072505EAD3
:1025F00014241C5D21FA04F48460546805EAD42490
:102600001B5DD940C1605268032303EA9232084B34
:102610001B1F9A5CB1FBF2F1016130BD001002405A
:1026200000127A00001BB700808D5B0000093D009E
:10263000C8000020034600205909094A01290AD090
:1026400002290AD0516A03F01F02012393400B4272
:1026500000D0012070471168F5E7116AF3E7000028
:10266000001002400649002281F8202081F8202035
:10267000012802D0042802D1052081F820007047EB
:102680000010024001490860704700003C044242CB
:1026900002490A6A02430A627047000000100240C1
:1026A0002DE9F84F2F4802270F25806809240626B8
:1026B0004FF02B094FF0320A4FF035084FF0340B32
:1026C0000C2826D8284801F00FFD312727A2022127
:1026D000384601F0BBFD23462C22082148460095D0
:1026E00001F04CFC23462F2231462E20009501F0AC
:1026F00045FC2346524604213846009501F03EFC35
:102700002346424602215846009501F037FCBDE8B9
:10271000F88F23462C2208214846009501F02EFC14
:1027200023462F2231462E20009501F027FC00265B
:1027300031252346524604212846009601F01EFC0E
:102740002346424639465846009601F017FC064893
:1027500001F0CAFC39462846BDE8F84F04A201F052
:1027600075BD000000000020C8980008200000008F
:102770005800000002490A8882430A80704700001E
:10278000042800400248018841F010010180704790
:10279000042800400248018821F0100101807047A0
:1027A000042800402DE9F04700F06AF8DFF8C08007
:1027B0000546B0FBF8F32F482F4E018899422FD0E1
:1027C000038040F2B2744FF4B7774FF4B6790FE05C
:1027D0002046FFF7DDF938B1BB4202D3A3F5B7734A
:1027E00004E0641CA4B205E0A3F26D13641CA4B25F
:1027F0004B45EDD8B4800024204F0BE0B088FFF7A4
:10280000C7F908B1012C2ED0385D984204D81B1AA4
:10281000641CA4B21C2BF1D2641CB4715B1CF37158
:10282000B5FBF8F108FB11504FF46161B0FBF1F218
:102830003270B0FBF1F201FB12033C22B3FBF2F366
:102840007370B0FBF1F301FB1300B0FBF2F102FB7C
:102850001100B070F279B179B08800F02BF83072C5
:102860000020BDE8F0871D2BD6D31D3BD0E700002C
:1028700080510100AC0000208017002074990008EE
:10288000034800880249091F098840EA014070474F
:102890001C28004006490988C2B21140044A121F90
:1028A0001288024202D009B101207047002070470F
:1028B0000428004030B56423B0FBF3F4B0FBF3F51B
:1028C000E4B203FB1500132C01D96430C0B200EB55
:1028D00090030724B3FBF4F504FB1533084D1A44A9
:1028E0000D44800715F8015C2A4492B203D10329F4
:1028F00001D2521E92B2B2FBF4F004FB102030BDA4
:102900006899000810B50120FFF7C4FF08B1FFF770
:1029100049FF0220FFF7BEFF10B10220FFF72AFF98
:102920000520FFF727FFBDE8104000F01FB90000A9
:10293000044A0029118801D0014300E0814311803D
:1029400070470000002800407CB5002401214FF0B2
:10295000C050FFF7FFFD0120FFF7B0FD0420FEF798
:10296000C1F945F250060025B0423DD0FEF7B0F95E
:102970000120FFF777FE08E0641CE4B20A2004F0AF
:1029800013F9FA2C01D301207CBD4120FFF752FE40
:102990000028F1D04FF48070FFF77AFE0120FFF796
:1029A00071FE00F0E3F800F0E9F801210846FFF7B6
:1029B000BFFF00F0DBF8FFF7E5FE47F6FF7000F021
:1029C000A5F800F0D3F83720CDE900500A23022201
:1029D0000C2140F2E17000F021F8FFF7DBFE3146F8
:1029E0000420FEF787F907E000F0C8F80121084647
:1029F000FFF79EFF00F0BAF803208DF800008DF875
:102A000001508DF8020001208DF803006846FFF7A1
:102A100059FCFFF7C7FE00207CBD00002DE9F05FE8
:102A20009A4605460023A0F2B270DDF828B0914620
:102A30008846822802D30120BDE8F09F40F2B2749C
:102A4000264E274F08E02046FFF7A2F808B133448E
:102A500000E03B44641CA4B2AC42F4D3A8F10100F2
:102A6000C6B200241F4FDFF880800EE0385D40F2D0
:102A7000A321484303EBC0132846FFF789F810B1A0
:102A8000012C00D14344641CA4B2B442EED340F202
:102A9000A32109FB01F0144903EBC0104942014492
:102AA000CAEB4A12C2EB0A2001EB0011CBEB0B1070
:102AB00001EB80000B99441801214FF0C050FFF743
:102AC00049FD0120FFF7FAFC204600F00FF800F066
:102AD0004DF8FFF767FE0020AEE700000085E20139
:102AE0008033E101749900088051010000B502466D
:102AF000FFF748FE0449100C0880081D02805DF8AD
:102B000004EBFFF747BE00001828004000B502465E
:102B1000FFF738FE0449C2F303400880081D028015
:102B20005DF804EBFFF736BE082800401FB50948E2
:102B3000817800914378027807A101A802F0FAFE9B
:102B4000094801F0D1FA01AA5621142001F07EFBB8
:102B50001FBD000080170020253032643A25303236
:102B6000643A253032640000C098000802480188A9
:102B70008906FCD5704700000428004004480188FD
:102B800021F00801018001880907FCD57047000089
:102B9000042800402DE9FF4F8B468246002502EBBA
:102BA000D27721E000241AE00D987910204405FB2B
:102BB00001000AEB440906780BEB050001B209F1AC
:102BC000010006F00F02884600B202F041F94146CA
:102BD0000FFA89F0320902F03BF9641C24B2B4EB1D
:102BE000670FE1DB6D1C2DB203988542DADBBDE88F
:102BF000FF8F2DE9FF4F0027D0178B4602EB507A4D
:102C000028E0002521E00D9841194FEAEA0007FB72
:102C10000010002406780BEB07000FFA80F80098EC
:102C200000EBC509300609EB0400414600B201D5AE
:102C30000F2200E0002202F00BF97000641C24B2A5
:102C400006B2082CEEDB6D1C2DB2B5EBEA0FDADB19
:102C50007F1C3FB203988742D3DBBDE8FF8F0000A3
:102C600010B504461520FFF7BBF91020FFF7B8F99F
:102C70003F20FFF7B5F97520FFF7B2F90020FFF705
:102C8000AFF95F20FFF7ACF9E2B2084C002101EB8D
:102C90004103002004EB03131A54401C80B2302877
:102CA000FAD3491C89B26029F1D310BD2604002053
:102CB0000029018802D041F0400101E021F04001EB
:102CC00001807047002A828801D00A4300E08A43CD
:102CD0008280704730B502884C8802F441530A88DC
:102CE000CD8822438C882C4322430C8922434C8973
:102CF00022438C892243CC8922431A430280828B4F
:102D000022F400628283098A018230BD81810189B7
:102D10008907FCD58089C0B2704710B5002305E053
:102D200030F8024B21F813405B1C9BB29342F7D35F
:102D300010BD0088704700002DE9F05FA0F100642D
:102D4000154688468246B4F5003F50D2FEF720FD76
:102D5000A70AC4F34806C6F50074A54200D82C465D
:102D6000DFF890B04FF0006000EB872081464FF411
:102D700000722049FFF7D1FF00204FF6FF7206E0F6
:102D800033183BF81310914203D1401C80B2A0428B
:102D9000F6D3A04223D24846FEF7A6FC00205A46AE
:102DA00006E038F810108319401C22F8131080B286
:102DB000A042F6D348464FF400720E4900F01CF8CA
:102DC000A54210D0281B08EB4408A244002685B277
:102DD0004FF400747F1CA542C4D82C46C2E722469B
:102DE00041465046EAE7BDE8F05FFEF7AFBCBDE8FC
:102DF000F09F00008A1700202DE9F04116460F468B
:102E00000546002407E037F814102846FEF7A6FC14
:102E1000641CA4B2AD1CB442F5D3BDE8F081704788
:102E200010B586B00A78ADF800204A78ADF80220D7
:102E30008A78ADF80420CA7812F0030206D0012A7D
:102E400006D0022A12D0032A05D111E0102200E098
:102E50002022ADF80820CA78C2F3C202082A0ED296
:102E6000DFE802F0080A1B1D1F2123254022F0E79E
:102E70008022EEE70C2200E01822ADF80C200A793F
:102E8000ADF806204A794FF0000412F040024FF0EE
:102E900001030ED0402A11D10EE03022EDE760226E
:102EA000EBE7C022E9E72622E7E73922E5E77322CC
:102EB000E3E7ADF80E4001E0ADF80E304A7912F0CC
:102EC000040202D0042A05D102E0ADF80A4001E074
:102ED000ADF80A304A7912F0030206D0012A06D072
:102EE000022A13D0032A05D112E0142200E0112295
:102EF000ADF810208A79ADF81220C979ADF8141018
:102F000016226946FDF70EF906B010BD0E22EFE756
:102F10000B22EDE7704700002DE9FC5F00242046FE
:102F2000FFF79EFE0F254FF00808834F4FF003096F
:102F3000DFF808B201264FF0070A01F0D5F901F0D9
:102F4000A1FF502003F030FECDE900855F23002172
:102F50001A46084600F050FFB87800907B783A781F
:102F600077A17B4802F0E6FC7A4801F0BDF8032126
:102F7000774A084601F06AF92F23402214211020D5
:102F8000CDF800B0FFF735FECDE9009509235922B1
:102F900002214B20641C00F02FFFCDE900650723C0
:102FA0004E2204214D2000F027FFCDE900650723C4
:102FB00051220421502000F01FFFCDE900650723B6
:102FC00054220421532000F017FFCDE900650723A8
:102FD00057220421562000F00FFFCDE9006506239B
:102FE0005B2205215A2000F007FF0520B4FBF0F119
:102FF000B1FBFAF20AFB121007282BD2DFE800F02F
:103000000406323A48627C00002300E00F230222CB
:1030100055210A2000F04BFF0023022255211920E0
:1030200000F045FF002302225521282000F03FFF39
:10303000002302225521372000F039FF002302220D
:103040005521462000F033FF002355210222084677
:1030500000F02DFF232CFFF470AFBDE8FC5F0020D3
:10306000FFF7FEBD0F23022255210A2000F01FFFAB
:103070000F23D2E70F23022255210A2000F017FF69
:103080000F2302225521192000F011FF0F23CAE758
:1030900001F05CFF10B9212001F038FF0F2302225C
:1030A00055210A2000F003FF0F2302225521192089
:1030B00000F0FDFE0F2302225521282000F0F7FE2C
:1030C0000F23B6E70F23022255210A2000F0EFFE5E
:1030D0000F2302225521192000F0E9FE0F230222BE
:1030E0005521282000F0E3FE0F230222552137202E
:1030F00000F0DDFE0F23A2E70F23022255210A2054
:1031000000F0D5FE0F2302225521192000F0CFFE3A
:103110000F2302225521282000F0C9FE0F2302228E
:103120005521372000F0C3FE0F23022255214620EF
:1031300000F0BDFE0F2388E7801700200073000811
:10314000253032643A253032643A2530326400004A
:1031500010000020C09800082DE9F04F002691B023
:1031600034460596374606960796089609963046E1
:103170000A96FFF775FDFEF7FDFB0246F8A1FA4837
:1031800002F0D8FB0DF11409042501E3761CF64882
:10319000B6B272002523F5A10C3802F0CBFBF5483E
:1031A00000F0A2FFF04A3C210C3A232001F04EF837
:1031B000F14800F099FFF1A21421192001F046F81E
:1031C000F0A228210F2001F041F83046FDF7C1F9A7
:1031D0004FF03332EE4BFDF7AEF8FDF7C7F94FF085
:1031E0000F08401DCDE9005802B25C235221052092
:1031F00000F0FCFE01F078F801F044FE642003F0DA
:10320000D3FC322EC1D101F0A1FE10B9242001F06F
:103210007DFEFDF7D7FD0646FDF77CFD0643F8D1A0
:10322000FDF7B4FD10B101F091FE60B1FDF786FD30
:1032300010B101F08BFE40B1FDF7B0FD50B101F0CF
:1032400085FE20B106E0BA2002E0BB2000E0BC20F1
:1032500001F05CFE0020FFF703FD07A801F056FF18
:10326000CC48FFF766FD8DF82200000A8DF8230098
:1032700007A90BA8FFF7D4FD16220BA9C648FCF737
:1032800051FFC54881788DF8191001798DF8181013
:1032900081798DF81710408A1E2801D31E2001E085
:1032A000002877D08DF816004FF0080A464601F046
:1032B0001BF801F0E7FDC82003F076FCCDE900A67D
:1032C0005F2300211A46084600F096FDA94800F049
:1032D0000BFFA54A0221042000F0B8FFA64800F029
:1032E00003FFAEA20C21042000F0B0FF9DF81920CE
:1032F000ACA10AA802F01EFB0AAA0C21372000F09C
:10330000A5FF9D4800F0F0FEA8A21D21042000F0BA
:103310009DFF9DF81820A7A10AA802F00BFB0AAA9E
:103320001D213C2000F092FF934800F0DDFEA3A297
:103330002E21042000F08AFF9DF817209DA10AA8E5
:1033400002F0F8FA0AAA2E213C2000F07FFF8A48FA
:1033500000F0CAFE9BA23F21042000F077FF9DF8F9
:10336000162094A10AA802F0E5FA0AAA3F213C20FF
:1033700000F06CFF804800F0B7FE94A250211220AC
:1033800000F064FFFDF7FCFC80B101F0DFFD20B12F
:1033900006E0FFE78DF8167086E7202001F0B6FD05
:1033A000012C01D8052401E0641EA4B2FDF7F6FC4F
:1033B00048B101F0CBFD10B9202001F0A7FD052C8C
:1033C00008D0641CA4B2FDF79DFC08B301F0BEFD5B
:1033D00010B104E00124F6E7202001F097FD012C54
:1033E00001D0052C06D119F80400FF2802D2401C98
:1033F00009F80400022C04D0032C0AD0042C08D0B5
:1034000013E09DF816001E280FD2401C8DF8160000
:103410000BE09DF817009DF818100844322804D2DC
:1034200019F80410491C09F80410FDF781FC28B3B1
:1034300001F08CFD10B9202001F068FD012C08D0AE
:10344000052C0DD0022C13D0032C18D0042C1ED028
:1034500024E09DF8150088B1401E8DF815001DE090
:103460009DF81900012819D9401E8DF8190015E0A2
:103470009DF8160010B1401E8DF816000EE09DF864
:10348000170001280AD9401E8DF8170006E09DF8A4
:103490001800012802D9401E8DF81800062C31D2E0
:1034A000DFE804F0030A3A98BEE5CDE900571B2394
:1034B0005E220A210220E0E0CDE900571B235E22B4
:1034C0000A21022000F098FCCDE900572B235E2250
:1034D0001B21022000F090FCCDE900573D235E2225
:1034E0002B21022000F088FCCDE900574E235E22FC
:1034F0003D21022000F080FC5E231A464E21B2E0FE
:1035000000F07AFCFDF736FC00283FF4D0AE01F065
:103510001DFD00287DD0D4E0CDE900571B235E229D
:103520000A21022000F068FCCDE900572B235E221F
:103530001B21022000F060FCCDE900573D235E22F4
:103540002B21022000F058FCCDE900575E231A46DB
:103550004E21022000F050FC4E235E223D2182E0ED
:10356000534E3A25303858001C0000202530336473
:1035700025630000C8980008D09800084B454550C6
:103580000000000050524553534544210000000004
:103590003333FB3FF6F3010810040020575F494422
:1035A0003A000000253033640000000046485353C1
:1035B0003A0000002530326400000000575F4348A5
:1035C0003A000000565F4F4C3A000000555044410D
:1035D00054452100CDE900571B235E220A21022019
:1035E00000F00AFCCDE900572B235E221B210220AC
:1035F00000F002FCCDE900574E235E223D2102205F
:1036000000F0FAFB5E23CDE900574E211A46022056
:1036100000E053E000F0F0FB3D235E222B2122E08E
:10362000CDE900571B235E220A21022000F0E4FBB3
:10363000CDE900573D235E222B21022000F0DCFB68
:10364000CDE900574E235E223D21022000F0D4FB3D
:10365000CDE900575E231A464E21022000F0CCFB34
:103660002B235E221B21CDE90056022048E7CDE93D
:1036700000561B235E220A21022000F0BDFBCDE98B
:1036800000572B235E221B21022000F0B5FBCDE961
:1036900000573D235E222B21022000F0ADFBCDE937
:1036A00000574E235E223D21022000F0A5FB5E2341
:1036B000CDE900574E211A46022021E7202001F0D3
:1036C00025FC012C7FF4F3AD9DF819008DF81D0049
:1036D0009DF818008DF81E009DF817008DF8200049
:1036E0009DF81600A0468DF822008DF823804646EE
:1036F0004FF00A0ADFF8B0B000F0F6FD01F0C2FBAF
:103700003046FCF726FF5A46284BFCF714FEFCF720
:103710002DFFCDE9005A02B25D234F21022000F0B7
:1037200065FC082E06D0102E16D0182E19D01C2E8F
:103730001BD01DE09DF81710CDE901181422CDE92A
:103740000382802000909DF818209DF819107323A3
:10375000C02001F003FC0BE09DF8160001F0AAFB6D
:1037600006E0012001F0BCFB02E007A800F020F811
:10377000642003F019FA761CB6B21E2EBCD901F0F3
:10378000E5FB10B9212001F0C1FB642003F00CFA25
:10379000FDF718FB002804D0FDF7BCFA00287FF4E1
:1037A000F5AC11B0BDE8F08F85EB51B81E8509402E
:1037B0000EB50188ADF800104188ADF8021081887F
:1037C000ADF80410C188ADF8061001884288514058
:1037D0008288C08842405140ADF8081005226946F1
:1037E0000248FFF7A9FA01200EBD0000F0F301081E
:1037F0000CB50022264800920192016841F4803104
:1038000001604FF4A063016801F400310191009957
:10381000491C0091019911B900999942F3D10168AD
:10382000890333D5012101911A490A6842F0100237
:103830000A600A6822F003020A600A6842F0020283
:103840000A604168416041684160416841F48061BB
:103850004160416821F47C114160416841F4881164
:103860004160016841F08071016001688901FCD507
:10387000416821F003014160416841F0020141606B
:103880004168C1F381010229FAD10CBD01920CBD3E
:1038900000100240002002404FF0E0210428086997
:1038A00003D020F004000861704740F00400FAE7FC
:1038B0000F4810B5016841F00101016041680D4AEF
:1038C0001140416001680C4A11400160016821F417
:1038D00080210160416821F4FE0141604FF41F0125
:1038E0008160FFF785FF05494FF00060086010BD5B
:1038F000001002400000FFF8FFFFF6FE08ED00E0B8
:1039000010B501218C07204600F05DF8002807D093
:103910000121204600F04AF8BDE8104003F0E4BC65
:1039200010BD7FB50D46044601210846FEF712FE84
:10393000ADF80440ADF8005000244FF08045ADF8DC
:103940000640ADF802406946284600F051F80122D1
:103950001146284600F043F84FF4E060FEF7E4FC1F
:103960001C218DF80C108DF80D4003208DF80E00F1
:1039700001208DF80F0003A8FEF7A4FC01212846C2
:1039800000F017F87FBD000010B5074C012120465C
:1039900000F019F8002805D02046BDE810400121AC
:1039A00000F004B810BD000000040040C9430182CB
:1039B00070470029018802D041F0010101E021F0A7
:1039C00001010180704702460020138A92890B4250
:1039D00002EA010202D0002A00D001207047002A2A
:1039E000828901D00A4300E08A4382817047000047
:1039F00030B502881B4C1C4DA0420DD0A8420BD004
:103A0000B0F1804F08D0194B984205D0184B98421E
:103A100002D0184B984203D122F070034A881A430F
:103A2000154B984206D0154B984203D022F44073B0
:103A3000CA881A4302808A8882850A880285A04241
:103A40000AD0A84208D00E4A904205D00D4A9042B2
:103A500002D00D4A904201D1097A0186012181826A
:103A600030BD0000002C0140003401400004004043
:103A700000080040000C004000100040001400400E
:103A8000004001400044014000480140084810B592
:103A9000007800280BD101F07FFBFEF701FE01F05A
:103AA00071F9FDF747F8BDE81040FFF73FB810BDCA
:103AB000380000202DE9F84F98460E4607007DD4C7
:103AC000002E7BDB002A79DD0120A0EB42000FFAFB
:103AD00080FA0020814614460546DFF804B10090C4
:103AE00079E05FEAC87008D0DBF80020701B01B2F3
:103AF0003819136800B20A9A98475FEA887008D5A7
:103B0000DBF80020301B01B27819136800B20A9A62
:103B100098475FEA487008D5DBF80020301B01B2F7
:103B2000781B136800B20A9A98475FEA087008D5B4
:103B3000DBF80020701B01B2381B136800B20A9A30
:103B400098475FEAC86008D5DBF80020701901B219
:103B5000381B136800B20A9A98475FEA886008D554
:103B6000DBF80020301901B2781B136800B20A9A02
:103B700098475FEA486008D5DBF80020301901B2A9
:103B80007819136800B20A9A98475FEA086008D566
:103B9000DBF80020701901B23819136800B20A9AD4
:103BA000984700996D1C09EB01000FFA80F9881CF9
:103BB00000B200902DB20AEB490000E00DE00028B1
:103BC00009DD09EB0A000FFA80F9641E0AF1020010
:103BD00024B20FFA80FAAC4283DABDE8F88F000015
:103BE000A00000202DE9FF4F83B088465FEA00095E
:103BF00075D4B8F1000F72DB002A70DD01204FF0A0
:103C0000000BA0EB420007B25E4614465D4664E03E
:103C100008EB050001B2A9EB0400DFF8C8A000B270
:103C2000CDE90101DAF800201368069A9847A8EB5D
:103C3000050001B20091DAF8002001981368069A95
:103C4000984709EB040000B20190DAF800200299CD
:103C50001368069A9847DAF80020DDE90010136827
:103C6000069A984708EB040001B2A9EB050000B2E0
:103C7000CDE90101DAF800201368069A9847A8EB0D
:103C8000040001B20091DAF8002001981368069A46
:103C9000984709EB050000B20190DAF8002002997C
:103CA0001368069A9847DAF80020DDE900101368D7
:103CB000069A984706EB0B0006B20BF102006D1C4A
:103CC0000FFA80FB07EB46002DB2002805DD641ECD
:103CD000F019BF1C24B206B23FB2AC4298DA07B06A
:103CE000BDE8F08FA00000202DE9F84F81461C466A
:103CF000154688464A4501DA4D469146444501DA63
:103D0000444698463848006890F85010890709D50D
:103D10000A990091C66C23462A4641464846B04758
:103D2000002843D0A5EB090000B2A4EB080109B2BA
:103D3000002801DD024600E0424215B2002901DD03
:103D40000A4600E04A4214B24FF0FF32002801DD7B
:103D5000012000E010468346002900DD01222248B0
:103D60009246671000686E104146036848460A9AFA
:103D70009847A5421CDB002716E0301906B2AE4278
:103D800005DB701B06B208EB0A000FFA80F809EB9E
:103D90000B000FFA80F9144841460A9A006803683C
:103DA000484698477F1C3FB2AF42E6DBBDE8F88F3C
:103DB000002616E0781907B2A74205DB381B07B2C8
:103DC00009EB0B000FFA80F908EB0A000FFA80F8F4
:103DD000054841460A9A0068036848469847761C99
:103DE00036B2A642E6DBE1E7A0000020014B1B68EB
:103DF0001B681847A00000202DE9F84F0746DDE9B1
:103E00000A54984616468946BA4201DA3E46174693
:103E10001846C84501DAC8468146B54245DC4545E5
:103E200043DC701B79190FFA80FA0FFA81FB4B46BD
:103E30005246194658460094FFF756FF43465246ED
:103E4000194658460094FFF74FFFA8EB050003B250
:103E500009EB050001B23A4698468946104600949F
:103E6000FFF742FF32464346494610460094FFF7AB
:103E70003BFF494658460C232A460094FFF71AFE9A
:103E80004946504603232A460094FFF713FE414655
:103E9000584630232A460094FFF70CFE4146504610
:103EA000C0232A460094FFF705FEBDE8F88F2DE9F0
:103EB000FF4F81B099460F465FEA00085AD4002FA1
:103EC00058DB0398002855DD0321A1EB400006B222
:103ED0000024039D43E0002D17DD781903B2A8EB01
:103EE0000400791B00B209B29B468A460246CDF80F
:103EF0000090FFF7F9FE08EB040000B25B46514664
:103F00000246CDF80090FFF7EFFE002C17DD3819C0
:103F100003B2A8EB0500391B00B209B29B468A46E2
:103F20000246CDF80090FFF7DFFE08EB050000B277
:103F30005B4651460246CDF80090FFF7D5FE002EB5
:103F400004DA06EB8400801D06B206E0601B06EB77
:103F500080000A306D1E06B22DB2641C24B2AC4241
:103F6000B9DD039A05B04B4639464046BDE8F04FEF
:103F7000FFF738BE05B0BDE8F08F00002DE9F84F1F
:103F80008046DDF828A01F4616460D46424501DA58
:103F900046469046AF4201DA0F461D46DFF848908C
:103FA000D9F8000090F85810890719D5CDF800A06D
:103FB000446D3B46324629464046A047002811D072
:103FC0000EE0444608E0D9F800005246294603684E
:103FD00020469847641C24B2B442F4DD6D1C2DB217
:103FE000BD42EEDDBDE8F88FA00000202DE9FF4FB7
:103FF00083B08246DDE910489B4691461046524503
:1040000001DAD1468246049918468B4501DA8B467F
:104010000490002C64DD0320A0EB440007B2A9EB60
:10402000040002B20AEB04000025264600B25B46FB
:10403000CDF800800499FFF7A1FF4FE0002E1DDDB1
:1040400006EB0B00001B03B2049909EB0500891B6A
:10405000001B214400B209B2CDF800800293024651
:104060000191FFF741FEAAEB0500CDF80080204446
:10407000DDE9011300B20246FFF736FE002D1DDD1B
:1040800005EB0B00001B03B20499AAEB0600491BC9
:104090002044214400B209B2CDF8008002930246C8
:1040A0000191FFF721FE09EB0600CDF80080001B0F
:1040B000DDE9011300B20246FFF716FE002F04DA15
:1040C00007EB8500801D07B206E0A81B07EB800008
:1040D0000A30761E07B236B26D1C2DB2B542ADDD88
:1040E00007B0BDE8F08F00000449026809680A6360
:1040F00082888A86C088C88670470000A000002099
:1041000001608280C380042101844184521F828423
:104110005B1FC3848283C383012180F8381080F839
:10412000391000230B49036341646FF07F41C0E9FC
:104130000F13036143611946836100EBC102491CFF
:10414000D364C9B282F850300229F6D3024908601C
:1041500001207047EF8B5E00A00000202DE9FF4F8B
:1041600081B0DC2816D008DCB0281BD0B52817D0C9
:10417000C42813D0D62816D108E0E4280CD0F6289D
:1041800002D0FC280FD103E094200CE099200AE033
:10419000812008E09A2006E0842004E08E2002E0DE
:1041A000E62000E0F820284B1FFA82F819688A8E72
:1041B000002A45D04FEAD20B91F83420520701D0A3
:1041C0000BF1010BB1F936400A6B00FB0BF004FB5D
:1041D000002A00202CE00299878E8CB200201DE07E
:1041E0001AF8016B002514E0F0071748006803680F
:1041F00001D0049A00E00E9A0FFA88F120B2984795
:10420000641C7F1E6D1C7608ADB2A4B2BFB2082D2F
:1042100001D2002FE8D109F1010080B28146584552
:10422000DED308F101001FFA80F80098401C80B22C
:10423000054A009000991068B0F936308B42CADC0C
:1042400005B0BDE8F08F0000A00000202DE9F84384
:1042500015460E4607460446DFF8648024E0BCF1AC
:104260000A0F28D0D8F80000B0F93420B0F9043093
:1042700022445B1E9A4206DDC28E90F939303C46DC
:104280001A44324416B2016C0091C36B3246214687
:104290006046FFF763FFD8F80000818E90F9380080
:1042A0000844204404B26D1C95F800C0BCF1000F16
:1042B000D5D1BDE8F883D8F80000B0F90440F2E7A2
:1042C000A00000200149086001207047A0000020E4
:1042D0000149096808647047A00000200149096885
:1042E000C8637047A000002010B52A4C216891F8DF
:1042F0004800C20703D020F0010081F84800D1E94E
:10430000042082422CD05AB3C1E90520017F8907DD
:104310001CD5017A090719D5B0F91410B2F9143077
:10432000994211D1B0F91810B2F9183099420BD155
:10433000B0F91610B2F91630994205D1B0F91A1039
:10434000B2F91A20914201D001F028FA206842699E
:10435000117A21F040011172406941F02801017287
:1043600020684469002C13D0207A800602D52046AC
:1043700001F07AFA207A00070AD5204601F07CF88D
:10438000204601F0E3F92046BDE8104001F048B8AE
:1043900010BD0000A00000202DE9F04F8246012151
:1043A00091B00846FEF7E2F801219748FDF78CFA34
:1043B00001211020FEF7DAF84FF40060ADF82C0070
:1043C00010258DF82F5002208DF82E000BA98F4854
:1043D000FDF72CFAE9018D48FDF7B0FA0121102014
:1043E000FEF7C4F8AF01ADF82C7004248DF82F400F
:1043F00002208DF82E000BA98448FDF717FA012141
:104400000420FEF7B3F86003ADF82C008DF82F40C0
:104410000220DFF8FC818DF82E000BA94046FDF745
:1044200005FA01210420FEF7A1F8A601ADF82C60E1
:104430008DF82F5002208DF82E000BA94046FDF775
:10444000F5F931464046FDF77BFA01210520FEF7DC
:104450008DF801218803FEF789F8E001ADF82C0002
:1044600018208DF82F004FF003098DF82E900BA91E
:104470004046FDF7DBF9ADF82C708DF82F400BA905
:104480004046FDF7D3F90024ADF83C400C20DFF89E
:1044900084B1ADF83840ADF83E00CDF834A0ADF8A9
:1044A0003A40ADF840400DA9584600F0F3FB012218
:1044B00040F22441584600F0D5FB01224FF45871D8
:1044C000584600F0CFFB0121584600F09AFB7F21AF
:1044D000584600F08DFB01210846FEF72FF8DFF863
:1044E00038A15046FDF748F80BF104064B480096FA
:1044F000CDE901052025CDE903548027CDE90574D8
:1045000007A84FF4005880E83001694650460A94E5
:10451000FDF7C0F8012202215046FDF7B3F8012251
:1045200008215046FDF7AEF84FF47040FDF70CF847
:1045300001228021584600F06EFB00215046FDF715
:104540000FF8DFF8D4A00AF1140A5046FDF714F86A
:10455000334801A9009681E89100CDE9044707A8F6
:10456000069480E83001694650460A94FDF792F8B7
:10457000012202215046FDF785F80122082150460C
:10458000FDF780F84FF47020FCF7DEFF0122402198
:10459000584600F040FB01215046FCF7E1FF4FF484
:1045A000E0663046FDF7C0FE25208DF830008DF81E
:1045B000314001258DF832508DF833500CA8FDF7AD
:1045C00081FE3046FDF7B0FE0E208DF830008DF8EC
:1045D000314002208DF832008DF833500CA8FDF7E1
:1045E00071FE3046FDF7A0FE0F208DF830008DF8EB
:1045F00031408DF832908DF833500CA8FDF762FEF3
:1046000011B0BDE8F08F0000000230000010014042
:104610000008014000380140440002406B000020C7
:104620002616002070B50E4D0C4606460021284681
:10463000FCF796FF4FF47040FCF786FF22463146A8
:104640000848FBF76FFD064844388464012128467A
:10465000FCF786FF034900202F39487070BD000029
:10466000440002406B0000202DE9F041244CDFF8AB
:1046700094800025257040F22441404600F0D3FA92
:104680000126A0B3204F3846FCF7E8FFC0F18000B8
:1046900080B2192826D300213846FCF761FF1B4859
:1046A0000178FF290ED1007EEE280BD10220FDF704
:1046B00013FB1649192201F18000FBF733FD144862
:1046C0000560A67000213846FCF74AFF4FF47020C1
:1046D000FCF72EFF0C4880215838C165012138466F
:1046E000FCF73EFFB8F800000648001D008840F2C5
:1046F0006C71404600F07FFA2670BDE8F081000042
:104700003C000020003801405800024026160020DE
:10471000080000202DE9F04F91B001211020FDF795
:1047200025FF4FF40075ADF82C5010267D4C8DF808
:104730002F604FF002088DF82E800BA92046FDF760
:1047400075F829462046FDF7FBF801211020FDF7FA
:104750000DFF4FF4005BADF82CB048208DF82F0012
:104760008DF82E800BA92046FDF760F80121480442
:10477000FDF7F0FE0425ADF82C5018208DF82F0021
:104780000320694C8DF82E000BA92046FDF74EF84A
:104790000820ADF82C008DF82F500BA92046FDF70E
:1047A00045F80BA92046FDF741F800244FF41650B8
:1047B0000D90ADF83C400C20ADF83840ADF83E000F
:1047C000ADF83A40ADF840400DA9584800F062FA03
:1047D000012240F22441554800F044FA01224FF4EE
:1047E0005871524800F03EFA0121504800F009FA91
:1047F0007F214E4800F0FCF94D48FCF7BDFE4B4FC1
:104800004C483F1D0097CDE9010603A907204FF052
:10481000800981E811024FF0200A0694CDE9074A89
:10482000A802CDE9090469464148FCF733FF01229B
:1048300002213F48FCF726FF012208213C48FCF7F3
:1048400021FF4FF07060FCF77FFE01228021381FAE
:1048500000F0E1F900213648FCF782FE34481438B4
:10486000FCF78AFE33480097C01DCDE9010403A977
:10487000402081E8110207A8069480E8100C2C481B
:10488000694614380A94FCF705FF294801220221E1
:104890001438FCF7F7FE2648012208211438FCF7EB
:1048A000F1FE4FF47000FCF74FFE01224021381F4B
:1048B00000F0B1F91E4801211438FCF751FE4FF405
:1048C000C0694846FDF730FD26208DF830008DF890
:1048D00031408DF8325001278DF833700CA8FDF768
:1048E000F1FC4846FDF720FD11208DF830008DF8D1
:1048F00031408DF832808DF833700CA8FDF7E2FC62
:104900004846FDF711FD8DF830608DF831408DF887
:1049100032508DF833700CA8FDF7D4FC11B0BDE80F
:10492000F08F0000001001400008014000440040EA
:10493000800002405400002070B50B49044600205E
:1049400008714FF07060FCF7FFFD084D002128460C
:10495000FCF706FE05488038C0F884402846BDE8CC
:1049600070400121FCF7FCBD3C00002080000240AB
:104970002DE9F041224C0020224DE07040F224410C
:10498000284600F050F9012668B31F4F3846FCF75F
:1049900065FEC0F1400080B2082820D300213846CF
:1049A000FCF7DEFD04F11F000178FF290BD1C0796F
:1049B000EE2808D1D4F81F00C4F82700D4F823004B
:1049C000C4F82B0066714FF47000FCF7B1FD0E497E
:1049D00040206C39086701213846FCF7C1FD288862
:1049E0000848001D00881F21284600F001F940F208
:1049F0006C71284600F0FFF8E670BDE8F081000019
:104A00003C000020004400406C000240F0B591B032
:104A100001210820FDF7AAFD01218804FDF79AFD78
:104A200001210846FDF7A2FD4FF48060ADF840007B
:104A300018208DF8430003204B4C8DF8420010A93C
:104A40002046FCF7F3FEE114ADF8401004218DF888
:104A5000431010A92046FCF7E9FE00244FF4E13092
:104A6000424D0C90ADF83440ADF838400C26ADF80E
:104A70003640ADF83C40ADF83A600CA9284600F04D
:104A800009F9012240F22441284600F0EBF8012206
:104A900040F22551284600F0E5F801224FF4587104
:104AA000284600F0DFF80121284600F0AAF8FF218F
:104AB000284600F09DF82E4D2846FCF75DFD2B485A
:104AC0006946001D00902B48019010200290402064
:104AD000CDE903048020CDE905042020CDE907407D
:104AE000C001CDE909042846FCF7D4FD01220221CA
:104AF0002846FCF7C7FD012208212846FCF7C2FD25
:104B0000F020FCF721FD012280211B4800F083F8F2
:104B1000174800216430FCF723FD15481430FCF7DA
:104B20002BFD4FF4A0673846FDF7FEFB27208DF8DC
:104B30002C008DF82D408DF82E4001258DF82F503A
:104B40000BA8FDF7BFFB3846FDF7EEFB8DF82C6098
:104B50008DF82D408DF82E508DF82F500BA8FDF7B5
:104B6000B1FB11B0F0BD0000000C01400048004056
:104B70001C000240BF1600200044004070B5194CD4
:104B8000194D0026A67140F22551284600F04BF839
:104B900080B161697E2902DC491C616100E06661C7
:104BA000284600F0CDF81149626988542021284632
:104BB00000F01EF840F22441284600F034F828B1F5
:104BC0000120A07128880848001D00881F21284660
:104BD00000F00EF82846BDE8704040F26C7100F01D
:104BE0000AB800003C00002000480040FF160020EA
:104BF000C943018070470A0A01219140C9430180DD
:104C000070470029818902D041F4005101E021F46C
:104C1000005181817047002A828A01D00A4300E056
:104C20008A438282704770B501F01F050126002477
:104C3000C1F3421306FA05F2012B0FD0022B0FD05D
:104C4000838A4FEA11210088134206FA01F600EA2E
:104C5000060001D000B10124204670BD8389F0E731
:104C6000038AEEE710B5C1F3421301F01F040121DE
:104C7000A140012B07D0022B07D01430002A026874
:104C800005D00A4304E00C30F8E71030F6E78A4319
:104C9000026010BD30B50446008A85B00D464CF662
:104CA000FF710840E98801432182A0894EF6F31183
:104CB0000840A9882A8911436A8902431143A181C6
:104CC000A08A4FF6FF410840A9890143A1826846A6
:104CD000FDF75EFC1948844201D1039800E0029878
:104CE000A189090400EBC00101EB0010296801D57E
:104CF000490000E08900B0FBF1F06422B0FBF2F162
:104D000009010B096FF018056B4300EB8300A389C1
:104D10001D044FF0320306D503EBC000B0FBF2F0E8
:104D200000F0070005E003EB0010B0FBF2F000F02C
:104D30000F000843208105B030BD0000003801405D
:104D40008088C0F3080070474FF480710148FCF779
:104D5000E7BD00000010014008B501211020FDF75B
:104D600005FC4FF48070ADF8000028208DF803009A
:104D700002208DF8020069460148FCF757FD08BD86
:104D8000000C01407FB50024019402940394FFF7C6
:104D9000DBFF3A25022138B1274800900823102272
:104DA0002846FDF7F7FE7FBD0923492228460094D7
:104DB000FFF7E4F80A210120FCF7CAFDFBF7C9FB65
:104DC0004FF066321D4BFBF7B6FA0122FBF794FB5E
:104DD0006FF00B02FBF790FBFBF7F4FBFBF7DFFB3D
:104DE00002460B4616A101A800F0A4FD1648FFF7E5
:104DF0007BF9032500949DF804000F232A463921EE
:104E0000FFF7ACF900949DF805000F232A463D21D9
:104E1000FFF7A4F900949DF806000F232A464121CC
:104E2000FFF79CF900949DF807000F232A464521BF
:104E3000FFF794F97FBD00007874000866660A40A9
:104E400025342E3266000000B8980008FEE7000006
:104E500030B5C9B20A4DC0F34603C40701EB4101A6
:104E600005EB0111C0F3460002F00F02085C03D00D
:104E700000F0F000104301E062F31F10C85430BD91
:104E80002604002010B51520FDF7AAF81020FDF724
:104E9000A7F83F20FDF7A4F87520FDF7A1F8002042
:104EA000FDF79EF85F20FDF79BF8BDE81040FDF789
:104EB00073B800001E2800D31E2008497E220A7005
:104EC00004224A7031228A70C87080F0350008715F
:104ED000EF2048710620FFF72FBD0000540000208E
:104EE000052800D3002008497E220A7004224A7057
:104EF00032228A70C87080F036000871EF20487145
:104F00000620FFF719BD0000540000200D49897CE0
:104F1000C90703D000EB8000643000B20A497E224A
:104F20000A7005224A7041228A70020ACA7008710A
:104F3000424082F044004871EF2088710720FFF75B
:104F4000FBBC000010040020540000204FF400516E
:104F50000148FCF7E5BC0000001001402DE9FC5FB2
:104F600005460CA81C4690E8000D16460F46012089
:104F7000DDF83C9000F0BEF8012000F001F94FF49C
:104F8000FA7001F011FE58A0D0E90010CDE9001030
:104F9000C020C02D01D0C22D22D08DF800008DF888
:104FA000017000218DF8026018208DF80310602C2C
:104FB00003D0732C18D0C02C14D08DF803004046B9
:104FC000B8F1100F12D0202815D0402802D0B8F127
:104FD000800F23D09DF8030000F0FC00801C0FE040
:104FE000C220DAE72020E8E73820E6E79DF8030052
:104FF00000F0FC0004E09DF8030000F0FC00401C01
:1050000000F03B008DF803008DF804A05FEA0B0070
:105010009DF8050007D040F0400006E09DF8030031
:1050200040F00300ECE700F0BF008DF805005FEAF8
:1050300009009DF8050002D040F0040001E000F0F6
:10504000FB008DF8050010980B2845D00E283DD0A8
:1050500011289DF8050000F0FC0000D1401C244CF4
:105060008DF8050021706170A170E170217161718E
:10507000FCF71AFA642001F097FD06216846FFF755
:10508000D1FA4FF4967001F08FFD21789DF8000061
:10509000814226D160789DF80110884221D1A07804
:1050A0009DF8021088421CD1E0789DF803108842D8
:1050B00017D120799DF80410884212D160799DF8AB
:1050C000051088420DD10120BDE8FC9F9DF8050028
:1050D00000F0FC00801CC2E79DF8050040F00300D2
:1050E000BDE70020F0E70000C0010A1A0A440000F2
:1050F00026160020044A00284FF48071104601D083
:10510000FCF71EBCFCF71ABC0008014038B5044689
:1051100019A0006800900120FFF7ECFF012000F0CB
:105120002FF84FF4C87001F03FFD144D0020287097
:105130006870A870E87028716871FCF7B5F9642090
:1051400001F032FD03216846FFF76CFA4FF49670C8
:1051500001F02AFD2878C02801D0002038BD207039
:1051600068786070A878A070E878E070287920717D
:1051700068796071012038BDC1C1C10026160020C8
:10518000044A00284FF40061104601D0FCF7D8BB58
:10519000FCF7D4BB001001402DE9FF4103240F258B
:1051A0000926282733463A4602212046CDE9004504
:1051B000FEF722FE2A48C18800918388428829A1EF
:1051C00002A800F0B7FB2B48FEF78EFF00959DF874
:1051D0000800002322460421FEF7C0FF00959DF839
:1051E0000900002322463146FEF7B8FF00959DF8DE
:1051F0000A00002322460E21FEF7B0FF00959DF81D
:105200000B00002322461321FEF7A8FF00959DF80E
:105210000C00002322461821FEF7A0FF00959DF800
:105220000D00002322461D21FEF798FF00959DF8F2
:105230000E00002322462221FEF790FF00200A21C3
:1052400000900B463A462046FEF74EFD27200823E5
:10525000024621460095FEF747FDBDE8FF810000AC
:105260001004002025303364253032642530326448
:1052700000000000C098000810B50A4C002120462C
:10528000FCF76EF94FF47040FCF75EF9054A052112
:10529000443A916401212046FCF762F9024900205A
:1052A000487010BD440002403C0000200449FF2229
:1052B0000A70487000208870C870EE20087170472E
:1052C0006B00002007498868421C8A606FF0010269
:1052D000904200D38A60C868431CCB60904200D3E0
:1052E000CA6070470000002010B5FFF7C5FFBDE899
:1052F00010400220FCF784BC2DE9FF4F81B0DDF89F
:105300003880D8F800000090DDE90230401E02B27B
:10531000924619460198FEF7E7FCD8F80400009081
:105320000498401E03B2DDE90120401C01B21F4673
:1053300089461046FEF7D8FCD8F808000090DDE951
:10534000032319460198FEF7CFFCDDE90212D8F8D5
:105350000C0000903B461046FEF7C6FCD8F8100043
:10536000009003984B46801E02B201989346401C61
:1053700000B219460646FEF7B7FCD8F814000090B4
:1053800004983246801E03B202981D46801C01B26A
:105390000C461046FEF7A8FCD8F818003B460090D3
:1053A000524619463046FEF79FFCD8F81C0052467C
:1053B00000902B4649461046FEF796FCD8F8200090
:1053C000009003982346C01E02B201981946801C23
:1053D00000B20646FEF788FCD8F824000090049836
:1053E0003246C01E03B202981F46C01C01B21046CE
:1053F000FEF77AFCD8F828002B4600905A4619464A
:105400003046FEF771FCD8F82C005A4600903B4617
:1054100021461046FEF768FC05B0BDE8F08F00009D
:105420002DE9F84305460020124F0221044678601A
:1054300039702E788046E94618E0686800EB441021
:1054400000900178CA070FD189070DD5817E59B127
:10545000C7F80490017E7970407EB870296C0548C9
:105460008847009981F81A80641CA4B2B442E4D33E
:10547000BDE8F883A4000020F0B531490778002387
:105480000968B1F90A40B1F90C500E7A54E041684C
:1054900001EB431292F800C051785FEACC7E48D10C
:1054A0005FEA8C7E45D55FEA0C7E42D55FEA4C6CA4
:1054B0003FD43EB3B4F1FF3F24D05FEA416C03D444
:1054C00021F0980141F00501B2F908C021F0200156
:1054D000A44514DCB2F90CC0A44510DBB2F90AC033
:1054E000AC450CDCB2F90EC0AC4508DB41F0200144
:1054F0005FEA416C03D421F0040141F0020141F064
:10550000400116E05FEA416C13D55FEA816C07D574
:105510005FEA817C01D541F0800141F0080101E0A2
:1055200041F010015FEA416C01D541F0010121F029
:1055300046015B1C51709BB2BB42A8D3F0BD00007A
:10554000A00000202DE9F04F8DB00546B0F908000D
:105550000590B5F90A30B5F90C000490B5F90E4084
:10556000287E07906868B0F904100091B0F9062011
:105570000292B5F91A100191B5F91C100391D5F8F2
:1055800000B00068594600286FD05FEA0B006CD06D
:10559000E41A944269DB012004E00A2A01D1401C8C
:1055A00080B2491C0A78002AF7D1079A002112F02C
:1055B000300F0DD0641C029A21B202FB1011C0F111
:1055C0000102039809B200FB021001B200294CDB72
:1055D0000798C00600D54910C818ADE0401C80B23D
:1055E000491C0A780AB10A2AF8D1DDE90421511AC6
:1055F000491C009A09B202FB1011C0F10102019886
:1056000009B200FB021000B200282EDB0799C9077F
:1056100001D0002003E00799890700D540100599C3
:10562000084400B20A907BE000291ED0DC2916D085
:1056300008DCB0291CD0B52918D0C42913D0D6292C
:1056400017D108E0E4290CD0F62902D0FC2910D1AA
:1056500003E094210DE099210BE0812109E09A21DA
:1056600007E0842105E08E2103E06AE0E62100E006
:10567000F821099886B20098C0F3CC0006900098F3
:10568000400702D00698401C06906868029A514371
:105690000068069A01FB02000890002033E00A9897
:1056A00084B200981FFA80F9002023E008980027B0
:1056B00010F8018B089017E05FEAC87001D02A69E2
:1056C00000E06A69204831B20068036820B2984758
:1056D000641C7F1CA9F10100BFB24FEA5808A4B2B4
:1056E0001FFA80F9082F02D2B9F1000FE4D10AF1B4
:1056F000010080B2069982468842D7D3761C0B9867
:10570000B6B2401C80B202990B908842C7DBDDE93B
:10571000000101440A980BF1010B084400B20A9001
:105720009BF800100A297FF47FAFDDE902010144F4
:1057300009980BF1010B084400B20990002059466A
:105740004FE70DB0BDE8F08FA00000202DE9F04735
:10575000804690F8009000261CE0D8F8040000EB8A
:1057600046152C786F78E00712D1A00710D5A00657
:1057700003D56A68294640469047200708D5200689
:1057800006D517F0410F03D06A6829464046904776
:10579000761CB6B24E45E0D3BDE8F0872DE9F04166
:1057A0008AB0040059D0207A800756D5207FB4F9FA
:1057B0001460B4F91650B4F91870C00705D0F61C7F
:1057C000ED1CFF1E36B22DB23FB22548006840697D
:1057D000A04203D1206B0690E06A02E0A06B069025
:1057E000606B05900698009094F83C10A5F10108B4
:1057F00001EB080003B23A46294630462034FEF752
:10580000BDFB2068019060680290F01CADF80C00B0
:10581000ADF80E50ADF81070217F01EB0800ADF827
:105820001200A07A8DF81C0094F90800ADF81E0053
:1058300094F90900ADF8200001A8FFF783FE09489C
:105840000090207F3A46284401B20B463046FEF7CE
:105850004BFA00200AB0BDE8F0814FF0FF30F9E7C5
:10586000A0000020A0A0A0002DE9F843B0F914107A
:10587000B0F918200446B0F91650B0F91A70007A41
:105880000E4620F0200090462072030745D5217F68
:10589000C90712D0400610D4244800903B46294640
:1058A0003046FFF729FDF61CED1CA8F10300FF1E92
:1058B00036B22DB20FFA80F83FB2207F80070FD5A5
:1058C0002046FFF76BFF94F83C006D1C284405B29E
:1058D000207A410604D520F040002072BDE8F8830C
:1058E000206900903B46424629463046FEF746FB7B
:1058F000237800200EE0616801EB40121178CD079B
:1059000006D18D0704D50D0702D541F06001117055
:10591000401C80B29842EED3E0E705483B46006861
:10592000406C00903046FEF729FBD7E7D898000876
:10593000A00000200FB4084B10B504A902AA0398D8
:1059400000F018FC044602A9002000F0AAFF20463F
:1059500010BC5DF814FB0000A3680008490050EA81
:10596000C12018BF04204A0D18BF40F0010040F2CA
:10597000FF72B2EB515F08BF40F00200012808BF80
:10598000052070472DE9F74F144694B00021C4E973
:1059900002111599079121F00045C9498D4206DC95
:1059A0001599C4E9000117B00020BDE8F08FC54982
:1059B000DFF814A3A9423CDD0799C44E0029C44F67
:1059C000C44A1599534619DDFAF7AFFC554506D080
:1059D000C14AC24BFAF7A9FCC4E900010AE04FF042
:1059E000D352BE4BFAF7A1FC32463B46FAF79DFC78
:1059F000C4E9000117B00120BDE8F08FFAF7F4FB0D
:105A0000554506D0B44AB54BFAF7EEFBC4E90001A0
:105A10000AE04FF0D352B14BFAF7E6FB32463B4671
:105A2000FAF7E2FBC4E9000117B04FF0FF30BDE820
:105A3000F08FAB49A942159978DB21F000418346EC
:105A40008846A84AA84BFAF776FC0022A74BFAF73B
:105A5000CBFBFAF721FF0990FAF76AFD06460F46DD
:105A60009C4A5346FAF767FC43465A46FAF760FCED
:105A700080468A46984A994B30463946FAF75BFC8D
:105A80002A0D01250B9242465346FAF751FC032D8D
:105A9000C4E9000139D00B98C1F30A51401A05EB53
:105AA00045111139814230DA9148C346784400EB00
:105AB0000510CDF80CA00C90D0E9002330463946F3
:105AC000FAF739FC02460B460491069058460399B2
:105AD000FAF72BFC80468A4602460B465846039945
